:020000040800F2
:100000000000012075BA0008C5AC0008D3AC000898
:10001000D9AC0008DFAC0008E5AC00080000000027
:10002000000000000000000000000000EBAC000831
:10003000F9AC00080000000007AD000815AD00088D
:10004000C5BA0008C5BA0008C5BA0008C5BA000894
:10005000C5BA0008C5BA0008C5BA0008C5BA000884
:10006000C5BA0008C5BA0008C5BA0008C5BA000874
:10007000C5BA0008C5BA0008C5BA0008C5BA000864
:10008000C5BA0008C5BA000869630008C5BA000807
:10009000C5BA0008C5BA0008C5BA0008C5BA000844
:1000A000C5BA0008C5BA0008C5BA0008C5BA000834
:1000B000C5BA00080000000000000000C5BA000832
:1000C000C5BA0008C5BA0008C5BA000865870008A7
:1000D000C5BA0008C5BA0008C5BA0008C5BA000804
:1000E000C5BA0008C5BA0008000000000000000002
:1000F0000000000000000000000000000000000000
:1001000000000000C5BA000800000000C5BA0008E1
:100110000000000000000000C5BA0008C5BA0008D1
:10012000C5BA0008C5BA0008C5BA0008C5BA0008B3
:10013000C5BA000800000000000000000000000038
:10014000C5BA0008C5BA0008C5BA000821AD000844
:10015000C5BA0008C5BA0008C5BA0008C5BA000883
:10016000C5BA0008C5BA0008C5BA000800000000FA
:10017000C5BA0008C5BA0008C5BA000800000000EA
:0C018000C5BA0008C5BA0008C5BA0008DE
:1001900010B5054C237833B9044B13B10448AFF3C1
:1001A00000800123237010BDF80100200000000032
:1001B000C0BF000808B5034B1BB103490348AFF3A8
:1001C000008008BD00000000FC010020C0BF000846
:1001D000034613F8012B002AFBD1181A0138704787
:1001E00081F0004102E000BF83F0004330B54FEAE8
:1001F00041044FEA430594EA050F08BF90EA020F55
:100200001FBF54EA000C55EA020C7FEA645C7FEAE7
:10021000655C00F0E2804FEA5454D4EB5555B8BF0A
:100220006D420CDD2C4480EA020281EA030382EA7B
:10023000000083EA010180EA020281EA0303362D0D
:1002400088BF30BD11F0004F4FEA01314FF4801CE0
:100250004CEA113102D0404261EB410113F0004FF2
:100260004FEA03334CEA133302D0524263EB4303A9
:1002700094EA050F00F0A780A4F10104D5F1200E47
:100280000DDB02FA0EFC22FA05F2801841F10001A2
:1002900003FA0EF2801843FA05F359410EE0A5F176
:1002A00020050EF1200E012A03FA0EFC28BF4CF0A7
:1002B000020C43FA05F3C01851EBE37101F000455D
:1002C00007D54FF0000EDCF1000C7EEB00006EEB6A
:1002D0000101B1F5801F1BD3B1F5001F0CD34908F4
:1002E0005FEA30004FEA3C0C04F101044FEA44524B
:1002F00012F5800F80F09A80BCF1004F08BF5FEAD2
:10030000500C50F1000041EB045141EA050130BDB1
:100310005FEA4C0C404141EB010111F4801FA4F154
:100320000104E9D191F0000F04BF01460020B1FAA9
:1003300081F308BF2033A3F10B03B3F120020CDAE1
:100340000C3208DD02F1140CC2F10C0201FA0CF0BF
:1003500021FA02F10CE002F11402D8BFC2F1200C24
:1003600001FA02F120FA0CFCDCBF41EA0C019040DA
:10037000E41AA2BF01EB0451294330BD6FEA040423
:100380001F3C1CDA0C340EDC04F11404C4F120020E
:1003900020FA04F001FA02F340EA030021FA04F320
:1003A00045EA030130BDC4F10C04C4F1200220FA77
:1003B00002F001FA04F340EA0300294630BD21FAB5
:1003C00004F0294630BD94F0000F83F4801306BF7B
:1003D00081F480110134013D4EE77FEA645C18BF6F
:1003E0007FEA655C29D094EA050F08BF90EA020F06
:1003F00005D054EA000C04BF1946104630BD91EAFE
:10040000030F1EBF0021002030BD5FEA545C05D100
:100410004000494128BF41F0004130BD14F580043F
:100420003CBF01F5801130BD01F0004545F0FE41B3
:1004300041F470014FF0000030BD7FEA645C1ABFE8
:10044000194610467FEA655C1CBF0B46024650EA1F
:10045000013406BF52EA033591EA030F41F400214B
:1004600030BD00BF90F0000F04BF0021704730B5D1
:100470004FF4806404F132044FF000054FF00001A6
:1004800050E700BF90F0000F04BF0021704730B567
:100490004FF4806404F1320410F0004548BF40423C
:1004A0004FF000013EE700BF42004FEAE2014FEA91
:1004B00031014FEA02701FBF12F07F4393F07F4F6C
:1004C00081F06051704732F07F4208BF704793F06F
:1004D0007F4F04BF41F40021704730B54FF4607482
:1004E00001F0004521F000411CE700BF50EA010285
:1004F00008BF704730B54FF000050AE050EA01022E
:1005000008BF704730B511F0004502D5404261EB9D
:1005100041014FF4806404F132045FEA915C3FF4DE
:10052000D8AE4FF003025FEADC0C18BF03325FEA7B
:10053000DC0C18BF033202EBDC02C2F1200300FA2C
:1005400003FC20FA02F001FA03FE40EA0E0021FA51
:1005500002F11444BDE600BF70B54FF0FF0C4CF43F
:10056000E06C1CEA11541DBF1CEA135594EA0C0FF1
:1005700095EA0C0F00F0DEF82C4481EA030621EA2C
:100580004C5123EA4C5350EA013518BF52EA033567
:1005900041F4801143F4801338D0A0FB02CE4FF019
:1005A0000005E1FB02E506F00042E0FB03E54FF049
:1005B0000006E1FB03569CF0000F18BF4EF0010E41
:1005C000A4F1FF04B6F5007F64F5407404D25FEA3D
:1005D0004E0E6D4146EB060642EAC62141EA5551F0
:1005E0004FEAC52040EA5E504FEACE2EB4F1FD0C32
:1005F00088BFBCF5E06F1ED8BEF1004F08BF5FEAB0
:10060000500E50F1000041EB045170BD06F0004661
:1006100046EA010140EA020081EA0301B4EB5C040E
:10062000C2BFD4EB0C0541EA045170BD41F4801106
:100630004FF0000E013C00F3AB8014F1360FDEBF2B
:10064000002001F0004170BDC4F10004203C35DA07
:100650000C341BDC04F11404C4F1200500FA05F38A
:1006600020FA04F001FA05F240EA020001F000422B
:1006700021F0004110EBD37021FA04F642EB0601A1
:100680005EEA430E08BF20EAD37070BDC4F10C04CB
:10069000C4F1200500FA04F320FA05F001FA04F28F
:1006A00040EA020001F0004110EBD37041F100017B
:1006B0005EEA430E08BF20EAD37070BDC4F1200586
:1006C00000FA05F24EEA020E20FA04F301FA05F2EE
:1006D00043EA020321FA04F001F0004121FA04F296
:1006E00020EA020000EBD3705EEA430E08BF20EA66
:1006F000D37070BD94F0000F0FD101F000464000A0
:1007000041EB010111F4801F08BF013CF7D041EA21
:10071000060195F0000F18BF704703F00046520025
:1007200043EB030313F4801F08BF013DF7D043EAF6
:100730000603704794EA0C0F0CEA135518BF95EAAC
:100740000C0F0CD050EA410618BF52EA4306D1D133
:1007500081EA030101F000414FF0000070BD50EA52
:10076000410606BF1046194652EA430619D094EADC
:100770000C0F02D150EA013613D195EA0C0F05D1C6
:1007800052EA03361CBF104619460AD181EA03011A
:1007900001F0004141F0FE4141F470014FF00000D2
:1007A00070BD41F0FE4141F4780170BD70B54FF06D
:1007B000FF0C4CF4E06C1CEA11541DBF1CEA1355ED
:1007C00094EA0C0F95EA0C0F00F0A7F8A4EB0504CF
:1007D00081EA030E52EA03354FEA013100F08880C6
:1007E0004FEA03334FF0805545EA131343EA12638F
:1007F0004FEA022245EA111545EA10654FEA002644
:100800000EF000419D4208BF964244F1FD0404F5FC
:10081000407402D25B084FEA3202B61A65EB030558
:100820005B084FEA32024FF480104FF4002CB6EB15
:10083000020E75EB030E22BFB61A754640EA0C0095
:100840005B084FEA3202B6EB020E75EB030E22BFD5
:10085000B61A754640EA5C005B084FEA3202B6EB16
:10086000020E75EB030E22BFB61A754640EA9C00D5
:100870005B084FEA3202B6EB020E75EB030E22BFA5
:10088000B61A754640EADC0055EA060E18D04FEA63
:10089000051545EA16754FEA06164FEAC30343EA03
:1008A00052734FEAC2025FEA1C1CC0D111F4801FD0
:1008B0000BD141EA00014FF000004FF0004CB6E7C9
:1008C00011F4801F04BF01430020B4F1FD0C88BF68
:1008D000BCF5E06F3FF6AFAEB5EB030C04BFB6EB73
:1008E000020C5FEA500C50F1000041EB045170BD66
:1008F0000EF0004E4EEA113114EB5C04C2BFD4EB93
:100900000C0541EA045170BD41F480114FF0000E16
:10091000013C90E645EA060E8DE60CEA135594EA92
:100920000C0F08BF95EA0C0F3FF43BAF94EA0C0F95
:100930000AD150EA01347FF434AF95EA0C0F7FF40A
:1009400025AF104619462CE795EA0C0F06D152EA5E
:1009500003353FF4FDAE1046194622E750EA410642
:1009600018BF52EA43067FF4C5AE50EA41047FF453
:100970000DAF52EA43057FF4EBAE12E74FF0FF3CB8
:1009800006E000BF4FF0010C02E000BF4FF0010C89
:100990004DF804CD4FEA410C7FEA6C5C4FEA430C02
:1009A00018BF7FEA6C5C1BD001B050EA410C0CBF51
:1009B00052EA430C91EA030F02BF90EA020F0020B3
:1009C000704710F1000F91EA030F58BF994208BF1A
:1009D00090422CBFD8176FEAE37040F001007047D7
:1009E0004FEA410C7FEA6C5C02D150EA013C07D12E
:1009F0004FEA430C7FEA6C5CD6D152EA033CD3D079
:100A00005DF8040B704700BF8446104662468C4672
:100A10001946634600E000BF01B5FFF7B7FF0028A5
:100A200048BF10F1000F01BD4DF808EDFFF7F4FFCE
:100A30000CBF012000205DF808FB00BF4DF808ED59
:100A4000FFF7EAFF34BF012000205DF808FB00BF7C
:100A50004DF808EDFFF7E0FF94BF012000205DF89E
:100A600008FB00BF4DF808EDFFF7CEFF94BF012053
:100A700000205DF808FB00BF4DF808EDFFF7C4FF4C
:100A800034BF012000205DF808FB00BF4FEA410C95
:100A90007FEA6C5C02D150EA013C0AD14FEA430C78
:100AA0007FEA6C5C02D152EA033C02D14FF00000B5
:100AB00070474FF0010070474A0011D212F5001242
:100AC00011D20DD56FF47873B3EB62520ED44FEAA6
:100AD000C12343F0004343EA505323FA02F0704726
:100AE0004FF00000704750EA013002D14FF0FF3064
:100AF00070474FF0000070474FEA4102B2F1E04307
:100B000024BFB3F5001CDCF1FE5C0DD901F0004CF4
:100B10004FEAC0024CEA5070B2F1004F40EB830044
:100B200008BF20F00100704711F0804F21D113F170
:100B30003872BCBF01F00040704741F480114FEAA9
:100B40005252C2F11802C2F1200C10FA0CF320FA32
:100B500002F018BF40F001004FEAC1234FEAD3234F
:100B600003FA0CFC40EA0C0023FA02F34FEA4303B9
:100B7000CCE77FEA625307D150EA01331EBF4FF042
:100B8000FE4040F44000704701F0004040F0FE405D
:100B900040F40000704700BF80B582B000AF002372
:100BA000FB71032000F092F9002000F00DF80346DD
:100BB000002B02D00123FB7101E00AF05FF8FB7902
:100BC00018460837BD4680BD80B584B000AF786058
:100BD0000023FB73164B1B68002B22D0154B1A68A1
:100BE000134B1B684FF47A71B1FBF3F3B2FBF3F3D1
:100BF000184600F0AEF90346002B0FD17B680F2B8F
:100C000009D8002279684FF0FF3000F06AF90A4AEB
:100C10007B68136007E00123FB7304E00123FB738F
:100C200001E00123FB73FB7B18461037BD4680BDF6
:100C30000400002018010020000000202DE9900889
:100C400000AF0A4B1B6819464FF00002084BD3E96E
:100C500000BC1BEB01034CEB0204054AC2E9003463
:100C600000BFBD46BDE89008704700BF04000020EB
:100C70000807002090B400AF034BD3E900341846B6
:100C80002146BD4690BC7047080700202DE99048DA
:100C900086B000AF7860FFF7EDFFC7E902017B681F
:100CA0007B617B69B3F1FF3F04D00E4B1B687A690F
:100CB00013447B6100BFFFF7DDFF83468C46D7E915
:100CC000023459466246C91A62EB04027B694FF04E
:100CD0000004A24208BF9942EDD300BF1837BD46B9
:100CE000BDE890880400002080B485B000AF786033
:100CF0007B6803F00703FB600C4BDB68BB60BA68E2
:100D00004FF6FF031340BB60FB681A02BB68134336
:100D100043F0BF6343F40033BB60044ABB68D36055
:100D200000BF1437BD465DF8047B704700ED00E05E
:100D300080B400AF044BDB681B0A03F007031846BE
:100D4000BD465DF8047B704700ED00E080B483B0E1
:100D500000AF0346FB7197F90730002B0BDBFB79E3
:100D600003F01F02074997F907305B09012000FAD9
:100D700002F241F8232000BF0C37BD465DF8047B2A
:100D8000704700BF00E100E080B483B000AF0346CD
:100D9000FB7197F90730002B10DBFB7903F01F0282
:100DA000094997F907305B09012000FA02F2203364
:100DB00041F82320BFF34F8FBFF36F8F00BF0C3775
:100DC000BD465DF8047B704700E100E080B483B06D
:100DD00000AF03463960FB7197F90730002B0ADB3F
:100DE0003B68DAB20C4997F907301201D2B20B44D2
:100DF00083F800230AE03B68DAB20849FB7903F084
:100E00000F03043B1201D2B20B441A7600BF0C3719
:100E1000BD465DF8047B704700E100E000ED00E0B6
:100E200080B489B000AFF860B9607A60FB6803F005
:100E30000703FB61FB69C3F10703042B28BF0423ED
:100E4000BB61FB690433062B02D9FB69033B00E05D
:100E500000237B614FF0FF32BB6902FA03F3DA43F0
:100E6000BB681A407B699A404FF0FF317B6901FAF9
:100E700003F3D9437B680B40134318462437BD4620
:100E80005DF8047B7047000080B582B000AF7860E9
:100E90007B68013BB3F1807F01D301230FE00A4A55
:100EA0007B68013B53600F214FF0FF30FFF78EFF4F
:100EB000054B00229A60044B07221A600023184653
:100EC0000837BD4680BD00BF10E000E080B582B0AD
:100ED00000AF78607868FFF707FF00BF0837BD46AE
:100EE00080BD80B586B000AF0346B9607A60FB7301
:100EF00000237B61FFF71CFF78617A68B968786925
:100F0000FFF78EFF024697F90F3011461846FFF79C
:100F10005DFF00BF1837BD4680BD80B582B000AF11
:100F20000346FB7197F907301846FFF70FFF00BF24
:100F30000837BD4680BD80B582B000AF0346FB7167
:100F400097F907301846FFF71FFF00BF0837BD4667
:100F500080BD80B582B000AF78607868FFF794FFFD
:100F6000034618460837BD4680BDF0B58BB006AFC6
:100F700078607B68002B01D10123DAE07B6893F86D
:100F80002932DBB2002B06D17B68002283F82822AD
:100F900078680AF05BF87B68032283F829227B6873
:100FA0001B68184602F0FFF97B681B683B607E688F
:100FB0006D4606F110040FCC0FC523682B60331D5E
:100FC0000ECB386802F0C6F90346002B05D07B68CB
:100FD000022283F829220123ABE07B681B680021F1
:100FE000184602F0FDF90023FB7335E0FB7B7A68BD
:100FF0005B011344293301221A70FB7B7A685B0181
:1010000013442833FA7B1A70FB7BFA7B91B27A681F
:101010005B01134436330A461A80FB7B7A685B0116
:1010200013442B3300221A70FB7B7A685B01134454
:10103000383300221A60FB7B7A685B0113443C332F
:1010400000221A60FB7B7A6802335B0113440022A2
:101050001A60FB7B0133FB73FA7B7B685B689A4207
:10106000C4D30023FB7331E0FB7B7A685B0113443C
:1010700003F2291300221A70FB7B7A685B01134488
:1010800003F59473FA7B1A70FB7B7A685B01134457
:1010900003F22B1300221A70FB7B7A685B01134466
:1010A00003F59C7300221A60FB7B7A685B01134492
:1010B00003F59E7300221A60FB7B7A680A335B019A
:1010C000134400221A60FB7B0133FB73FA7B7B68BD
:1010D0005B689A42C8D37B681B683B607E686D463C
:1010E00006F110040FCC0FC523682B60331D0ECB07
:1010F000386802F082F90346002B05D07B68022293
:1011000083F82922012314E07B68002283F824203D
:101110007B68012283F829227B68DB69012B02D1DD
:10112000786800F08EFE7B681B68184603F0CEF9E5
:10113000002318461437BD46F0BD80B582B000AF1D
:1011400078607B68002B01D101230EE07B680322CD
:1011500083F82922786800F02EF8786809F09CFF5F
:101160007B68002283F82922002318460837BD46F1
:1011700080BD80B582B000AF78607B6893F828327C
:10118000012B01D1022312E07B68012283F828227F
:101190007B681B68184603F082F97B681B68184659
:1011A00002F0E9F87B68002283F828220023184621
:1011B0000837BD4680BD80B582B000AF78607B68DF
:1011C00093F82832012B01D1022320E07B68012211
:1011D00083F828227B681B68184602F0E4F87B68D5
:1011E0001B68184603F030F90346002B05D07B68D6
:1011F000002283F82822012309E07B681B68184637
:1012000003F064F97B68002283F828220023184643
:101210000837BD4680BD80B582B000AF78607B687E
:101220001B68184603F067F9034603F40043B3F55F
:10123000004F02D1786800F03FFB7B681B681846BE
:1012400003F059F9034603F48063B3F5806F12D1BC
:101250007B681B68B3F844309AB27B681B6822F441
:10126000806292B2A3F84420786809F07EFF0021E2
:10127000786800F029F97B681B68184603F03BF991
:10128000034603F48043B3F5804F0BD17B681B68A2
:10129000B3F844309AB27B681B6822F4804292B261
:1012A000A3F844207B681B68184603F024F9034622
:1012B00003F40053B3F5005F0BD17B681B68B3F8F0
:1012C00044309AB27B681B6822F4005292B2A3F8B1
:1012D00044207B681B68184603F00DF9034603F4AD
:1012E0008053B3F5805F33D17B681B68B3F840301F
:1012F0009AB27B681B6822F0040292B2A3F84020E5
:101300007B681B68B3F840309AB27B681B6822F098
:10131000080292B2A3F840207B6893F86032012B58
:1013200007D17B68002283F86022002178680AF0E8
:101330002DFA786809F052FF7B681B68B3F84430D7
:101340009AB27B681B6822F4805292B2A3F84420C0
:101350007B681B68184603F0CEF8034603F400636D
:10136000B3F5006F31D17B681B68B3F840309AB297
:101370007B681B6842F0080292B2A3F840207B68A9
:101380001B68B3F844309AB27B681B6822F4006291
:1013900092B2A3F844207B681B68B3F840309AB23D
:1013A0007B681B6842F0040292B2A3F840207B687D
:1013B0001B68184603F09FF8034603F48053B3F507
:1013C000805F02D0786809F0EFFE7B681B681846E2
:1013D00003F091F8034603F08003802B3FD17B6834
:1013E0001B68B3F844309AB27B681B6822F0800215
:1013F00092B2A3F844207B6893F86032002B2BD183
:101400007B681B68B3F840309AB27B681B6842F077
:10141000040292B2A3F840207B681B68B3F8403006
:101420009AB27B681B6842F0080292B2A3F840208F
:101430007B68012283F860227B681B68B3F8543014
:101440009BB29B0803F03C027B68C3F86422012135
:1014500078680AF09BF902E0786809F0A5FE7B68DD
:101460001B68184603F047F8034603F40073B3F50E
:10147000007F0ED17B681B68B3F844309AB27B685A
:101480001B6822F4007292B2A3F84420786809F035
:101490005EFE7B681B68184603F02DF8034603F4D4
:1014A0008073B3F5807F0BD17B681B68B3F8443041
:1014B0009AB27B681B6822F4807292B2A3F844202F
:1014C00000BF0837BD4680BD80B582B000AF7860F0
:1014D0000B46FB707B6893F82832012B01D1022365
:1014E00013E07B68012283F828227B68FA7883F86E
:1014F00024207B681B68FA781146184602F0BBFF6F
:101500007B68002283F82822002318460837BD464E
:1015100080BD80B584B000AF7860084611461A4699
:101520000346FB700B463B801346BB700023FB72E7
:1015300097F90330002B0BDAFB7803F007035B010C
:1015400028337A681344FB60FB6801225A700BE071
:10155000FB7803F007035B0103F594737A68134487
:10156000FB60FB6800225A70FB7803F00703DAB2D5
:10157000FB681A703A88FB681A61FB68BA78DA70FF
:10158000FB685B78002B04D0FB681B789AB2FB6881
:10159000DA81BB78022B02D1FB6800221A717B68CA
:1015A00093F82832012B01D102230EE07B6801223F
:1015B00083F828227B681B68F968184601F042FF0F
:1015C0007B68002283F82822FB7A18461037BD4634
:1015D00080BD80B584B000AF78600B46FB7097F992
:1015E0000330002B0BDAFB7803F007035B01283391
:1015F0007A681344FB60FB6801225A700BE0FB78A9
:1016000003F007035B0103F594737A681344FB60EE
:10161000FB6800225A70FB7803F00703DAB2FB681C
:101620001A707B6893F82832012B01D102230EE057
:101630007B68012283F828227B681B68F9681846BA
:1016400002F0EAF97B68002283F82822002318467A
:101650001037BD4680BD80B586B000AFF8607A60B7
:101660003B600B46FB72FB7A03F007035B0103F55B
:101670009473FA6813447B617B697A685A617B6969
:101680003A689A617B690022DA617B6900225A70AC
:10169000FB7A03F00703DAB27B691A70FB7A03F076
:1016A0000703002B06D1FB681B687969184602F016
:1016B00049FB05E0FB681B687969184602F042FBAC
:1016C000002318461837BD4680BD80B483B000AFF4
:1016D00078600B46FB70FB7803F007037A680A33E7
:1016E0005B01134404331B6818460C37BD465DF894
:1016F000047B704780B586B000AFF8607A603B60CD
:101700000B46FB72FB7A03F007035B012833FA6890
:1017100013447B617B697A685A617B693A689A6194
:101720007B690022DA617B6901225A70FB7A03F03F
:101730000703DAB27B691A70FB7A03F00703002B08
:1017400006D1FB681B687969184602F0FBFA05E0D0
:10175000FB681B687969184602F0F4FA0023184602
:101760001837BD4680BD80B584B000AF78600B46A9
:10177000FB70FB7803F007027B685B689A4201D933
:10178000012346E097F90330002B0BDAFB7803F0D6
:1017900007035B0128337A681344FB60FB6801226E
:1017A0005A7009E0FB785B0103F594737A6813447F
:1017B000FB60FB6800225A70FB6801229A70FB787C
:1017C00003F00703DAB2FB681A707B6893F82832DB
:1017D000012B01D102231CE07B68012283F828221F
:1017E0007B681B68F968184602F058FDFB7803F027
:1017F0000703002B08D17B681A687B6803F50C731C
:101800001946104602F087FE7B68002283F82822E2
:10181000002318461037BD4680BD80B584B000AFA8
:1018200078600B46FB70FB7803F00F027B685B6807
:101830009A4201D901233AE097F90330002B0BDAE1
:10184000FB7803F007035B0128337A681344FB60DD
:10185000FB6801225A700BE0FB7803F007035B0181
:1018600003F594737A681344FB60FB6800225A7096
:10187000FB6800229A70FB7803F00703DAB2FB687A
:101880001A707B6893F82832012B01D102230EE0F5
:101890007B68012283F828227B681B68F968184658
:1018A00002F03EFD7B68002283F8282200231846C0
:1018B0001037BD4680BD000090B589B000AF78609C
:1018C0006FE27B681B68B3F84430FB82FB8ADBB2B3
:1018D00003F00F037B757B7D002B40F03781FB8A83
:1018E00003F01003002B4FD17B681B681B889BB251
:1018F00023F4E14323F070039CB27B681A686FEA1B
:1019000044436FEA53439BB213807B682833FB60E8
:101910007B681B68B3F850309BB21A46FB681B7893
:10192000DB0013447A681268134403F202431B88F5
:10193000C3F30902FB68DA61FB685A69FB68DB697B
:101940001A44FB685A610021786809F0E9FB7B685A
:1019500093F82430DBB2002B00F02382FB689B69F4
:10196000002B40F01E827B6893F82430DBB263F0DA
:101970007F03DAB27B681B6892B2A3F84C207B68C5
:10198000002283F824200CE27B6803F59473FB604B
:101990007B681B681B887B827B8A03F40063002BB7
:1019A00031D07B681B68B3F850309BB21A46FB6895
:1019B0001B78DB0013447A681268134403F2064371
:1019C0001B88C3F30902FB68DA617B6818687B68CF
:1019D00003F50C71FB68DA88FB68DB699BB202F0E7
:1019E000E7FD7B681B681B889AB240F68F73134033
:1019F0009CB27B681B6844F0800292B21A807868BF
:101A000009F064FBCDE1B7F91230002B80F2C981F7
:101A10007B681B681B889AB240F68F7313409CB298
:101A20007B681B6844F0800292B21A807B681B6856
:101A3000B3F850309BB21A46FB681B78DB001344A6
:101A40007A681268134403F206431B88C3F3090241
:101A5000FB68DA61FB68DB69002B19D0FB685B6906
:101A6000002B15D07B681868FB685969FB68DA8819
:101A7000FB68DB699BB202F09BFDFB685A69FB685F
:101A8000DB691A44FB685A610021786809F030FB71
:101A90007B681B681C467B681B68B3F850309BB2A0
:101AA0001C4404F20643BB60FB681B69002B10D189
:101AB000BB681B8823F4F8439AB2BB681A80BB68E2
:101AC0001B886FEA43436FEA53439AB2BB681A809C
:101AD00026E0FB681B693D2B13D8FB681B695B087C
:101AE000BB61FB681B6903F00103002B02D0BB69DB
:101AF0000133BB61BB699BB29B029AB2BB681A807F
:101B00000EE0FB681B695B09BB61BB699BB29B0272
:101B10009BB26FEA43436FEA53439AB2BB681A80A1
:101B20007B681B681B889BB223F4804323F07003FF
:101B30009CB284F480539CB284F400539CB27B68C2
:101B40001A689F4B23439BB213802AE17B681B6872
:101B50001A467B7D9B0013441B887B82B7F91230A9
:101B6000002B80F2CB807B681B681A467B7D9B0034
:101B700013441B889AB240F68F7313409CB27B6863
:101B80001B681A467B7D9B00134444F0800292B28E
:101B90001A807B7D5B0103F594737A681344FB60C4
:101BA000FB681B7B002B1FD17B681B68B3F8503090
:101BB0009BB21A46FB681B78DB0013447A681268F4
:101BC000134403F206431B88C3F30903FB83FB8B17
:101BD000002B6ED07B681868FB685969FB68DA884F
:101BE000FB8B02F0E5FC64E07B681B681A46FB682F
:101BF0001B789B0013441B889BB203F48043002B8B
:101C00001FD07B681B68B3F850309BB21A46FB6844
:101C10001B78DB0013447A681268134403F2024312
:101C20001B88C3F30903FB83FB8B002B28D07B6845
:101C30001868FB685969FB681A89FB8B02F0B8FCCD
:101C40001EE07B681B68B3F850309BB21A46FB68F5
:101C50001B78DB0013447A681268134403F20643CE
:101C60001B88C3F30903FB83FB8B002B08D07B6825
:101C70001868FB685969FB685A89FB8B02F098FC6D
:101C80007B681B681A46FB681B789B0013441B8803
:101C90009BB223F4E04323F070039CB27B681B6883
:101CA0001A46FB681B789B001A44464B23439BB2A1
:101CB0001380FB68DA69FB8B1A44FB68DA61FB6806
:101CC0005A69FB8B1A44FB685A61FB689B69002BBD
:101CD00004D0FA8BFB681B699A4206D2FB681B781A
:101CE0001946786809F004FA08E0FB681978FB687F
:101CF0005A69FB689B697868FFF7ADFC7B8A03F043
:101D00008003002B4DD07B7D5B0128337A68134420
:101D1000FB607B681B681A467B7D9B0013441B8815
:101D20009BB223F4E14323F070039CB27B681B68F1
:101D30001A467B7D9B001A446FEA44436FEA534383
:101D40009BB213807B681B68B3F850309BB21A4675
:101D5000FB681B78DB0013447A681268134403F2B3
:101D600002431B88C3F30902FB68DA61FB685A6906
:101D7000FB68DB691A44FB685A61FB689B69002BAE
:101D800006D1FB681B781946786809F0C9F908E0A4
:101D9000FB681978FB685A69FB689B697868FFF7EC
:101DA000A9FC7B681B68B3F844309BB21BB2002BC4
:101DB000FFF687AD002318462437BD4690BD00BF0F
:101DC0008080FFFFC080FFFF80B487B000AFF86065
:101DD0007B600B467B8113463B817B8903F080034C
:101DE0009BB2002B08D07B8903F007035B012833EB
:101DF000FA6813447B6106E07B895B0103F5947309
:101E0000FA6813447B613B89002B07D17B69002270
:101E10001A737B689AB27B69DA800BE07B690122D6
:101E20001A737B689AB27B691A817B681B0C9AB221
:101E30007B695A81002318461C37BD465DF8047B38
:101E4000704780B485B000AF78607B681B68FB602A
:101E50007B680122C3F868227B68002283F8602235
:101E6000FB68B3F854309BB243F001039AB2FB68AD
:101E7000A3F85420FB68B3F854309BB243F002033C
:101E80009AB2FB68A3F85420002318461437BD46C5
:101E90005DF8047B7047000080B400AF044B1B6802
:101EA00003F4C0631846BD465DF8047B704700BF6D
:101EB0000070004080B485B000AF78607B68B3F5F7
:101EC000007F30D1234B1B6803F4C063B3F5007F60
:101ED00038D0204B1B6823F4C0631E4A43F40073C0
:101EE00013601D4B1B68322202FB03F31B4AA2FB4B
:101EF00003239B0C0133FB6002E0FB68013BFB60AA
:101F0000144B5B6903F48063B3F5806F02D1FB6807
:101F1000002BF2D10F4B5B6903F48063B3F5806F44
:101F200010D103230FE00B4B1B6803F4C063B3F520
:101F3000806F07D0074B1B6823F4C063054A43F446
:101F400080631360002318461437BD465DF8047B98
:101F5000704700BF007000401801002083DE1B4363
:101F600080B400AF054B5B68044A43F48063536060
:101F700000BFBD465DF8047B704700BF00700040A5
:101F80002DE990488AB000AF78607B68002B02D1C1
:101F9000012300F09ABCA24B9B6803F00C033B6248
:101FA0009F4BDB6803F00303FB617B681B6803F056
:101FB0001003002B00F0FA803B6A002B07D03B6A2D
:101FC0000C2B40F08B80FB69012B40F08780944BF9
:101FD0001B6803F00203002B06D07B689B69002B73
:101FE00002D1012300F071BC7B681A6A8C4B1B681C
:101FF00003F00803002B04D0894B1B6803F0F003A7
:1020000005E0874BD3F894301B0903F0F0039342AB
:1020100024D27B681B6A184600F0D6FD0346002BCD
:1020200002D0012300F051BC7D4B1B687C4A43F079
:10203000080313607A4B1B6823F0F0027B681B6A6D
:10204000774913430B60764B5B6823F47F427B68D0
:10205000DB691B02724913434B6023E0704B1B6822
:102060006F4A43F0080313606D4B1B6823F0F002C6
:102070007B681B6A6A4913430B60694B5B6823F4F6
:102080007F427B68DB691B02654913434B607B68B9
:102090001B6A184600F098FD0346002B02D001236E
:1020A00000F013BC00F006FD01465D4B9B681B0968
:1020B00003F00F035B4AD35C03F01F0321FA03F321
:1020C000594A1360594B1B681846FEF77DFD0346BD
:1020D000FB73FB7B002B68D0FB7BF6E37B689B6983
:1020E000002B3DD04E4B1B684D4A43F0010313605B
:1020F000FEF7C0FDC7E9040112E0FEF7BBFD0A468A
:102100000146D7E90434C91A62EB04028B469446AF
:10211000BCF1000F08BFBBF1030F01D30323D4E3CD
:102120003F4B1B6803F00203002BE6D03C4B1B68BF
:102130003B4A43F008031360394B1B6823F0F0025D
:102140007B681B6A364913430B60354B5B6823F48D
:102150007F427B68DB691B02314913434B6025E0FA
:102160002F4B1B682E4A23F001031360FEF782FDFC
:10217000C7E9040112E0FEF77DFD0A460146D7E9F2
:102180000434C91A62EB04028B469446BCF1000F7A
:1021900008BFBBF1030F01D3032396E3204B1B6859
:1021A00003F00203002BE6D100E000BF7B681B6850
:1021B00003F00103002B00F08A803B6A082B05D056
:1021C0003B6A0C2B0ED1FB69032B0BD1144B1B6804
:1021D00003F40033002B79D07B685B68002B75D14A
:1021E000012372E37B685B68B3F5803F06D10C4B3B
:1021F0001B680B4A43F48033136025E07B685B68FF
:10220000B3F5A02F14D1064B1B68054A43F4802375
:102210001360034B1B68024A43F48033136013E0DE
:1022200000100240ACD2000818010020000000207D
:10223000AA4B1B68A94A23F480331360A74B1B6881
:10224000A64A23F4802313607B685B68002B1ED0B2
:10225000FEF710FDC7E9040112E0FEF70BFD0A4688
:102260000146D7E90434C91A62EB04028B4694464E
:10227000BCF1000F08BFBBF1650F01D3032324E3BA
:10228000964B1B6803F40033002BE6D01FE0FEF7EB
:10229000F1FCC7E9040112E0FEF7ECFC0A46014636
:1022A000D7E90434C91A62EB04028B469446BCF1A8
:1022B000000F08BFBBF1650F01D3032305E3874B74
:1022C0001B6803F40033002BE6D100E000BF7B68FD
:1022D0001B6803F00203002B76D03B6A042B05D069
:1022E0003B6A0C2B19D1FB69022B16D17B4B1B6867
:1022F00003F48063002B05D07B68DB68002B01D1E1
:102300000123E2E2754B5B6823F0F8527B681B699E
:102310001B06724913434B6056E07B68DB68002B59
:102320002ED06E4B1B686D4A43F480731360FEF72A
:10233000A1FCC7E9040112E0FEF79CFC0A46014635
:10234000D7E90434C91A62EB04028B469446BCF107
:10235000000F08BFBBF1030F01D30323B5E25F4BAE
:102360001B6803F48063002BE6D05C4B5B6823F0B2
:10237000F8527B681B691B06584913434B6023E0E6
:10238000564B1B68554A23F480731360FEF772FCAA
:10239000C7E9040112E0FEF76DFC0A460146D7E9E1
:1023A0000434C91A62EB04028B469446BCF1000F58
:1023B00008BFBBF1030F01D3032386E2474B1B6821
:1023C00003F48063002BE6D17B681B6803F00803ED
:1023D000002B52D07B685B69002B27D03F4BD3F892
:1023E00094303E4A43F00103C2F89430FEF742FCB9
:1023F000C7E9040112E0FEF73DFC0A460146D7E9B1
:102400000434C91A62EB04028B469446BCF1000FF7
:1024100008BFBBF1030F01D3032356E22F4BD3F8C0
:10242000943003F00203002BE5D026E02B4BD3F8C9
:1024300094302A4A23F00103C2F89430FEF71AFCC4
:10244000C7E9040112E0FEF715FC0A460146D7E988
:102450000434C91A62EB04028B469446BCF1000FA7
:1024600008BFBBF1030F01D303232EE21B4BD3F8AC
:10247000943003F00203002BE5D17B681B6803F066
:102480000403002B00F0CA80002387F82730134B89
:102490009B6D03F08053002B0ED1104B9B6D0F4AA8
:1024A00043F0805393650D4B9B6D03F08053BB60ED
:1024B000BB68012387F82730094B1B6803F480733E
:1024C000002B28D1064B1B68054A43F48073136028
:1024D000FEF7D0FBC7E9040117E000BF001002407F
:1024E00000700040FEF7C6FB0A460146D7E90434F7
:1024F000C91A62EB04028B469446BCF1000F08BF78
:10250000BBF1030F01D30323DFE1B04B1B6803F4DE
:102510008073002BE6D07B689B68012B08D1AC4B05
:10252000D3F89030AA4A43F00103C2F8903024E077
:102530007B689B68052B10D1A54BD3F89030A44A3B
:1025400043F00403C2F89030A14BD3F89030A04A76
:1025500043F00103C2F890300FE09D4BD3F8903068
:102560009B4A23F00103C2F89030994BD3F8903086
:10257000974A23F00403C2F890307B689B68002BD5
:1025800021D0FEF777FBC7E9040114E0FEF772FBE8
:102590000A460146D7E90434C91A62EB04028B46A5
:1025A000944641F288314FF00002624508BF594518
:1025B00001D2032389E1864BD3F8903003F0020364
:1025C000002BE3D020E0FEF755FBC7E9040114E03F
:1025D000FEF750FB0A460146D7E90434C91A62EBFC
:1025E00004028B46944641F288314FF00002624566
:1025F00008BF594501D2032367E1754BD3F89030EA
:1026000003F00203002BE3D197F82730012B05D10B
:102610006F4B9B6D6E4A23F0805393657B681B68FC
:1026200003F02003002B52D07B685B6A002B27D07D
:10263000674BD3F89830664A43F00103C2F89830EC
:10264000FEF718FBC7E9040112E0FEF713FB0A4688
:102650000146D7E90434C91A62EB04028B4694465A
:10266000BCF1000F08BFBBF1030F01D303232CE122
:10267000574BD3F8983003F00203002BE5D026E047
:10268000534BD3F89830524A23F00103C2F89830E4
:10269000FEF7F0FAC7E9040112E0FEF7EBFA0A468A
:1026A0000146D7E90434C91A62EB04028B4694460A
:1026B000BCF1000F08BFBBF1030F01D3032304E1FA
:1026C000434BD3F8983003F00203002BE5D17B682D
:1026D0009B6A002B00F0F8803B6A0C2B00F0B58061
:1026E0007B689B6A022B77D1394B1B68384A23F0F1
:1026F00080731360FEF7BEFAC7E9040112E0FEF72B
:10270000B9FA0A460146D7E90434C91A62EB040251
:102710008B469446BCF1000F08BFBBF1030F01D3F9
:102720000323D2E02A4B1B6803F00073002BE6D191
:10273000274BDA68274B13407A68D16A7A68126BA4
:10274000013A120111437A68526B120211437A68FE
:10275000D26B5208013A520511437A68126C520842
:10276000013A520611437A68926BD2060A4318491D
:102770001343CB60164B1B68154A43F080731360FC
:10278000134BDB68124A43F08073D360FEF772FA92
:10279000C7E9040112E0FEF76DFA0A460146D7E9DF
:1027A0000434C91A62EB04028B469446BCF1000F54
:1027B00008BFBBF1030F01D3032386E0044B1B6862
:1027C00003F00073002BE6D07EE000BF00700040F5
:1027D000001002408C809D013E4B1B683D4A23F057
:1027E000807313603B4B1B6803F00063002B05D123
:1027F000384BDB68374A23F00303D360354BDB6883
:10280000344A23F0887323F48033D360FEF732FA1E
:10281000C7E9040112E0FEF72DFA0A460146D7E99E
:102820000434C91A62EB04028B469446BCF1000FD3
:1028300008BFBBF1030F01D3032346E0254B1B6800
:1028400003F00073002BE6D13EE07B689B6A012B0E
:1028500001D1012339E01F4BDB68FB61FB6903F009
:1028600003027B68DB6A9A422CD1FB6903F0700299
:102870007B681B6B013B1B019A4223D1FB6903F46C
:10288000FE427B685B6B1B029A421BD1FB6903F023
:1028900078427B689B6BDB069A4213D1FB6903F499
:1028A000C0027B68DB6B5B08013B5B059A4209D188
:1028B000FB6903F0C0627B681B6C5B08013B5B0635
:1028C0009A4201D0012300E0002318462837BD4674
:1028D000BDE89088001002402DE9904886B000AF16
:1028E000786039607B68002B01D10123D3E06C4B09
:1028F0001B6803F007033A689A4210D9684B1B68BB
:1029000023F0070266493B6813430B60644B1B6866
:1029100003F007033A689A4201D00123BBE07B68C9
:102920001B6803F00103002B57D07B685B68032B07
:1029300007D15C4B1B6803F00073002B21D10123EE
:10294000A9E07B685B68022B07D1564B1B6803F438
:102950000033002B15D101239DE07B685B68002BC1
:1029600007D1504B1B6803F00203002B09D1012350
:1029700091E04C4B1B6803F48063002B01D10123D1
:1029800089E0484B9B6823F003027B685B684549FC
:1029900013438B60FEF76EF9C7E9040114E0FEF7FC
:1029A00069F90A460146D7E90434C91A62EB040200
:1029B0008B46944641F288314FF00002624508BFD1
:1029C000594501D2032366E0364B9B6803F00C02A5
:1029D0007B685B689B009A42E1D17B681B6803F0CF
:1029E0000203002B08D02F4B9B6823F0F0027B687A
:1029F0009B682C4913438B60294B1B6803F007032A
:102A00003A689A4210D2264B1B6823F007022449E9
:102A10003B6813430B60224B1B6803F007033A68C3
:102A20009A4201D0012336E07B681B6803F004035F
:102A3000002B08D01B4B9B6823F4E0627B68DB68AB
:102A4000184913438B607B681B6803F00803002B55
:102A500009D0144B9B6823F460527B681B69DB0030
:102A6000104913438B6000F025F801460D4B9B681D
:102A70001B0903F00F030C4AD35C03F01F0321FA78
:102A800003F30A4A13600A4B1B681846FEF79CF8CA
:102A90000346FB73FB7B18461837BD46BDE890889C
:102AA0000020024000100240ACD2000818010020B3
:102AB0000000002080B489B000AF0023FB61002338
:102AC000BB613D4B9B6803F00C033B613A4BDB68F9
:102AD00003F00303FB603B69002B05D03B690C2B23
:102AE00021D1FB68012B1ED1334B1B6803F0080377
:102AF000002B07D1304BD3F894301B0A03F00F039F
:102B0000FB6105E02C4B1B681B0903F00F03FB6105
:102B10002A4AFB6952F82330FB613B69002B0DD137
:102B2000FB69BB610AE03B69042B02D1244BBB610A
:102B300004E03B69082B01D1224BBB613B690C2BA4
:102B400033D11D4BDB6803F00303BB60BB68022B72
:102B500002D0032B03D005E0194B7B6105E0194B34
:102B60007B6102E0FB697B6100BF134BDB681B09E3
:102B700003F0070301337B600F4BDB681B0A03F094
:102B80007F037A6902FB03F27B68B2FBF3F37B619C
:102B9000094BDB685B0E03F0030301335B003B6012
:102BA0007A693B68B2FBF3F3BB61BB691846243713
:102BB000BD465DF8047B704700100240BCD200089F
:102BC0000024F40000127A0080B586B000AF78606F
:102BD00000233B612A4B9B6D03F08053002B03D0F5
:102BE000FFF75AF9786114E0254B9B6D244A43F0B6
:102BF00080539365224B9B6D03F08053FB60FB6811
:102C0000FFF74AF978611E4B9B6D1D4A23F08053F4
:102C100093657B69B3F5007F0BD17B68802B19D955
:102C20007B68A02B02D902233B6113E001233B61A7
:102C300010E07B68802B02D903233B610AE07B68AC
:102C4000802B02D102233B6104E07B68702B01D111
:102C500001233B610B4B1B6823F0070209493B69C9
:102C600013430B60074B1B6803F007033A699A4252
:102C700001D0012300E0002318461837BD4680BD6F
:102C800000100240002002402DE9904888B000AFBB
:102C900078600023FB760023BB767B681B6803F417
:102CA0000063002B2FD07B685B6CB3F5000F05D061
:102CB000B3F5400F15D0002B07D00FE0674BDB6852
:102CC000664A43F48033D3600CE07B680433002110
:102CD000184600F037FA0346FB7603E00123FB7643
:102CE00000E000BFFB7E002B0BD15C4BD3F888309B
:102CF00023F440027B685B6C58491343C1F8883069
:102D000001E0FB7EBB767B681B6803F40033002B7D
:102D100000F0B38000237B76504B9B6D03F0805313
:102D2000002B01D1012300E00023002B0DD04B4BE1
:102D30009B6D4A4A43F080539365484B9B6D03F06B
:102D40008053FB60FB6801237B76454B1B68444A3C
:102D500043F480731360FDF78DFFC7E9040113E0AE
:102D6000FDF788FF0A460146D7E90434C91A62EB29
:102D700004028B469446BCF1000F08BFBBF1030F61
:102D800002D30323FB7605E0354B1B6803F4807305
:102D9000002BE5D0FB7E002B64D1304BD3F8903074
:102DA00003F44073FB61FB69002B1ED07B68DB6D75
:102DB000FA699A4219D0294BD3F8903023F4407322
:102DC000FB61264BD3F89030244A43F48033C2F899
:102DD0009030224BD3F89030204A23F48033C2F84D
:102DE00090301E4AFB69C2F89030FB6903F0010382
:102DF000002B21D0FDF73EFFC7E9040115E0FDF7E8
:102E000039FF0A460146D7E90434C91A62EB0402C5
:102E10008B46944641F288314FF00002624508BF6C
:102E2000594502D20323FB7606E00C4BD3F89030D1
:102E300003F00203002BE2D0FB7E002B0BD1074BEB
:102E4000D3F8903023F440727B68DB6D0349134361
:102E5000C1F8903008E0FB7EBB7605E00010024030
:102E600000700040FB7EBB767B7E012B05D18D4B35
:102E70009B6D8C4A23F0805393657B681B6803F03D
:102E80000103002B0AD0874BD3F8883023F00302CC
:102E90007B681B6A83491343C1F888307B681B68D1
:102EA00003F00203002B0AD07E4BD3F8883023F0C6
:102EB0000C027B685B6A7B491343C1F888307B68EE
:102EC0001B6803F00403002B0AD0764BD3F888303C
:102ED00023F030027B689B6A72491343C1F8883043
:102EE0007B681B6803F02003002B0AD06D4BD3F8DE
:102EF000883023F440627B68DB6A6A491343C1F877
:102F000088307B681B6803F40073002B0AD0654B84
:102F1000D3F8883023F440227B68DB6B614913438C
:102F2000C1F888307B681B6803F48063002B0AD0EB
:102F30005C4BD3F8883023F440127B681B6C5949F2
:102F40001343C1F888307B681B6803F04003002BF3
:102F50000AD0544BD3F8883023F440527B681B6B63
:102F600050491343C1F888307B681B6803F0800325
:102F7000002B0AD04B4BD3F8883023F440427B68B7
:102F80005B6B48491343C1F888307B681B6803F4C6
:102F90008073002B0AD0434BD3F8883023F440329F
:102FA0007B689B6B3F491343C1F888307B681B6883
:102FB00003F40053002B28D03A4BD3F8883023F089
:102FC00040627B689B6C37491343C1F888307B684B
:102FD0009B6CB3F1006F06D1324BDB68314A43F48E
:102FE0008013D36011E07B689B6CB3F1806F0CD1D0
:102FF0007B6804330121184600F0A4F80346FB76F1
:10300000FB7E002B01D0FB7EBB767B681B6803F444
:103010000023002B28D0234BD3F8883023F04062C4
:103020007B68DB6C1F491343C1F888307B68DB6C1D
:10303000B3F1006F06D11B4BDB681A4A43F48013CF
:10304000D36011E07B68DB6CB3F1806F0CD17B68DF
:1030500004330121184600F075F80346FB76FB7E29
:10306000002B01D0FB7EBB767B681B6803F48023BA
:10307000002B2BD00B4BD3F8883023F040627B68B9
:103080001B6D08491343C1F888307B681B6DB3F191
:10309000006F09D1034BDB68024A43F48013D3600D
:1030A00014E000BF001002407B681B6DB3F1806F1D
:1030B0000CD17B6804330121184600F043F8034625
:1030C000FB76FB7E002B01D0FB7EBB767B681B680A
:1030D00003F48043002B1CD0194BD3F8883023F025
:1030E00040527B685B6D16491343C1F888307B689A
:1030F0005B6DB3F1805F0CD17B680433022118460D
:1031000000F020F80346FB76FB7E002B01D0FB7E0F
:10311000BB767B681B6803F40043002B0AD0084B86
:10312000D3F8883023F080427B689B6D04491343B9
:10313000C1F88830BB7E18462037BD46BDE8908870
:10314000001002402DE9904886B000AF78603960E9
:103150000023FB757E4BDB6803F00303002B18D0C4
:103160007B4BDB6803F003027B681B689A420DD13E
:103170007B681B68002B09D0754BDB681B0903F0CB
:1031800007035A1C7B685B689A4244D00123FB7595
:1031900041E07B681B68022B0CD0032B13D0012B62
:1031A00020D16B4B1B6803F00203002B1DD10123C0
:1031B000FB751AE0664B1B6803F48063002B16D185
:1031C0000123FB7513E0624B1B6803F40033002BF3
:1031D0000FD15F4B1B6803F48023002B09D101231F
:1031E000FB7506E00123FB7504E000BF02E000BFB1
:1031F00000E000BFFB7D002B0DD1554BDB6823F0B9
:1032000073027B6819687B685B68013B1B010B4399
:103210004F491343CB60FB7D002B40F093804C4B18
:103220001B684B4A23F080631360FDF723FDC7E959
:10323000020113E0FDF71EFD0A460146D7E90234FC
:10324000C91A62EB04028B469446BCF1000F08BF1A
:10325000BBF1030F02D30323FB7505E03C4B1B6856
:1032600003F00063002BE5D1FB7D002B6AD13B68A6
:10327000002B10D1364B1B6923F0784323F4FE4317
:103280007A68926811027A68D268D2060A43304995
:1032900013430B6127E03B68012B12D12C4B1B69B8
:1032A00023F4C00323F4FE437A68926811027A681B
:1032B00012695208013A52050A43254913430B612A
:1032C00011E0234B1B6923F0C06323F4FE437A68AB
:1032D000926811027A6852695208013A52060A430A
:1032E0001B4913430B611A4B1B68194A43F0806357
:1032F0001360FDF7BFFCC7E9020113E0FDF7BAFC5C
:103300000A460146D7E90234C91A62EB04028B4629
:103310009446BCF1000F08BFBBF1030F02D3032397
:10332000FB7505E00A4B1B6803F00063002BE5D03A
:10333000FB7D002B06D1064B1A697B689B6904490B
:1033400013430B61FB7D18461837BD46BDE89088D6
:103350000010024084B080B483B000AF786007F101
:10336000140080E80E00002318460C37BD465DF8B7
:10337000047B04B0704780B485B000AF78604BF632
:103380008073FB817B68B3F840309AB2FB891343AA
:103390009AB27B68A3F84020002318461437BD4634
:1033A0005DF8047B704780B485B000AF78604BF661
:1033B0008073FB817B68B3F840309BB21AB2B7F9D7
:1033C0000E30DB431BB213401BB29AB27B68A3F8EA
:1033D0004020002318461437BD465DF8047B704733
:1033E00080B483B000AF78600B46FB7000231846B2
:1033F0000C37BD465DF8047B704784B080B582B061
:1034000000AF786007F1140080E80E007B680122AD
:10341000A3F840207B680022A3F840207B680022AC
:10342000A3F844207B680022A3F850207868FFF7B7
:10343000A2FF002318460837BD46BDE8804004B00F
:103440007047000090B486B000AF78603960002308
:10345000FB757A683B681B789B0013441B889BB202
:1034600023F4EC4323F07003BB823B68DB78032B2F
:1034700019D801A252F823F0893400089D340008BD
:10348000AD34000893340008BB8A43F40073BB8258
:103490000DE0BB8A43F4C063BB8208E0BB8A43F4FF
:1034A0008063BB8203E00123FB7500E000BF7A6804
:1034B0003B681B789B001A44BB8A43F07F4343F46C
:1034C0007F0343F4004343F080039BB213807A6888
:1034D0003B681B789B0013441B889BB21BB223F4F0
:1034E000E04323F070031AB23B681B781BB213430E
:1034F0001BB29CB27A683B681B789B001A44874BCE
:1035000023439BB213803B681B7B002B40F00C8154
:103510003B685B78002B67D07C687B68B3F85030E1
:103520009BB21C443B681B78DB00234403F580639B
:103530001C463B68DB885B089BB25B009BB2238028
:103540007A683B681B789B0013441B889CB2234617
:1035500003F04003002B14D07A683B681B789B0073
:1035600013441B889BB223F4E04323F070039CB206
:103570007A683B681B789B001A44694B23439BB2D3
:1035800013803B68DB78012B18D07A683B681B7886
:103590009B0013441B889BB223F4E04323F04003B9
:1035A0009CB284F020039CB27A683B681B789B0035
:1035B0001A445A4B23439BB2138025E27A683B6836
:1035C0001B789B0013441B889BB223F4E04323F039
:1035D00040039CB27A683B681B789B001A444F4BAF
:1035E00023439BB213800FE27C687B68B3F85030B2
:1035F0009BB21C443B681B78DB00234403F204436A
:103600001C463B68DB885B089BB25B009BB2238057
:103610007C687B68B3F850309BB21C443B681B78D5
:10362000DB00234403F20643FB603B681B69002B6D
:1036300010D1FB681B8823F4F8439AB2FB681A8008
:10364000FB681B886FEA43436FEA53439AB2FB68F7
:103650001A8026E03B681B693D2B13D83B681B6929
:103660005B083B613B681B6903F00103002B02D040
:103670003B6901333B613B699BB29B029AB2FB6899
:103680001A800EE03B681B695B093B613B699BB29A
:103690009B029BB26FEA43436FEA53439AB2FB68C3
:1036A0001A807A683B681B789B0013441B889CB285
:1036B000234603F48043002B14D07A683B681B78C0
:1036C0009B0013441B889BB223F4E04323F0700358
:1036D0009CB27A683B681B789B001A44114B2343C9
:1036E0009BB213807A683B681B789B0013441B884D
:1036F0009BB223F4804323F070039CB284F4805384
:103700009CB284F400539CB27A683B681B789B009F
:103710001A44024B23439BB2138075E18080FFFF64
:10372000C080FFFF80C0FFFF7A683B681B789B006A
:1037300013441B889BB223F4E04323F070039CB234
:103740007A683B681B789B001A44964B23439BB2D4
:1037500013807C687B68B3F850309BB21C443B6894
:103760001B78DB00234403F580631C463B681B8900
:103770005B089BB25B009BB223807C687B68B3F8DC
:1037800050309BB21C443B681B78DB00234403F29F
:1037900004431C463B685B895B089BB25B009BB2A1
:1037A00023803B685B78002B40F088807A683B6818
:1037B0001B789B0013441B889CB2234603F4804370
:1037C000002B14D07A683B681B789B0013441B883D
:1037D0009BB223F4E04323F070039CB27A683B6809
:1037E0001B789B001A44704B23439BB213807A686A
:1037F0003B681B789B0013441B889CB2234603F054
:103800004003002B14D07A683B681B789B0013445C
:103810001B889BB223F4E04323F070039CB27A68C8
:103820003B681B789B001A44604B23439BB2138078
:103830007A683B681B789B0013441B889BB223F477
:10384000E04323F070039CB27A683B681B789B00CE
:103850001A44564B23439BB213807A683B681B780B
:103860009B0013441B889BB223F4804323F0700316
:103870009CB284F480539CB284F400539CB27A6866
:103880003B681B789B001A44494B23439BB213802F
:103890007A683B681B789B0013441B889BB223F417
:1038A000E04323F040039CB27A683B681B789B009E
:1038B0001A443F4B23439BB21380A5E07A683B68D0
:1038C0001B789B0013441B889CB2234603F480435F
:1038D000002B14D07A683B681B789B0013441B882C
:1038E0009BB223F4E04323F070039CB27A683B68F8
:1038F0001B789B001A442C4B23439BB213807A689D
:103900003B681B789B0013441B889CB2234603F042
:103910004003002B14D07A683B681B789B0013444B
:103920001B889BB223F4E04323F070039CB27A68B7
:103930003B681B789B001A441C4B23439BB21380AB
:103940007A683B681B789B0013441B889BB223F466
:10395000E04323F070039CB27A683B681B789B00BD
:103960001A44114B23439BB213803B68DB78012B35
:1039700020D07A683B681B789B0013441B889BB25D
:1039800023F4E04323F040039CB284F020039CB274
:103990007A683B681B789B001A44054B23439BB213
:1039A00013801CE08081FFFF80C0FFFFC080FFFF0D
:1039B0008080FFFF7A683B681B789B0013441B885C
:1039C0009BB223F4E04323F040039CB27A683B6847
:1039D0001B789B001A440F4B23439BB213807A68D9
:1039E0003B681B789B0013441B889BB223F48043E5
:1039F00023F070039CB27A683B681B789B001A44E2
:103A0000044B23439BB21380FB7D18461837BD46F9
:103A100090BC70478080FFFF90B482B000AF7860A8
:103A200039603B681B7B002B71D13B685B78002BB6
:103A300036D07A683B681B789B0013441B889CB285
:103A4000234603F04003002B14D07A683B681B78B0
:103A50009B0013441B889BB223F4E04323F07003C4
:103A60009CB27A683B681B789B001A446B4B2343DB
:103A70009BB213807A683B681B789B0013441B88B9
:103A80009BB223F4E04323F040039CB27A683B6886
:103A90001B789B001A44624B23439BB2138044E182
:103AA0007A683B681B789B0013441B889CB22346B2
:103AB00003F48043002B14D07A683B681B789B008A
:103AC00013441B889BB223F4E04323F070039CB2A1
:103AD0007A683B681B789B001A44524B23439BB285
:103AE00013807A683B681B789B0013441B889BB249
:103AF00023F4804323F070039CB27A683B681B7800
:103B00009B001A44464B23439BB213800DE13B6854
:103B10005B78002B40F088807A683B681B789B00BC
:103B200013441B889CB2234603F48043002B14D01B
:103B30007A683B681B789B0013441B889BB223F474
:103B4000E04323F070039CB27A683B681B789B00CB
:103B50001A44344B23439BB213807A683B681B782A
:103B60009B0013441B889CB2234603F04003002BA8
:103B700014D07A683B681B789B0013441B889BB267
:103B800023F4E04323F070039CB27A683B681B780F
:103B90009B001A44214B23439BB213807A683B68F5
:103BA0001B789B0013441B889BB223F4E04323F053
:103BB00070039CB27A683B681B789B001A44174BD1
:103BC00023439BB213807A683B681B789B001344A5
:103BD0001B889BB223F4804323F070039CB27A6865
:103BE0003B681B789B001A440D4B23439BB2138008
:103BF0007A683B681B789B0013441B889BB223F4B4
:103C0000E04323F040039CB27A683B681B789B003A
:103C10001A44034B23439BB2138086E0C080FFFF0E
:103C20008080FFFF80C0FFFF7A683B681B789B00A5
:103C300013441B889CB2234603F48043002B14D00A
:103C40007A683B681B789B0013441B889BB223F463
:103C5000E04323F070039CB27A683B681B789B00BA
:103C60001A44354B23439BB213807A683B681B7818
:103C70009B0013441B889CB2234603F04003002B97
:103C800014D07A683B681B789B0013441B889BB256
:103C900023F4E04323F070039CB27A683B681B78FE
:103CA0009B001A44254B23439BB213807A683B68E0
:103CB0001B789B0013441B889BB223F4E04323F042
:103CC00070039CB27A683B681B789B001A441A4BBD
:103CD00023439BB213807A683B681B789B00134494
:103CE0001B889BB223F4E04323F040039CB27A6824
:103CF0003B681B789B001A44114B23439BB21380F3
:103D00007A683B681B789B0013441B889BB223F4A2
:103D1000804323F070039CB27A683B681B789B0059
:103D20001A44074B23439BB21380002318460837DD
:103D3000BD4690BC704700BF80C0FFFFC080FFFF42
:103D40008080FFFF90B595B000AF786039603B6828
:103D50005B78012B40F05D813B689A693B681B6989
:103D60009A4209D93B681B69BB643B689A69BB6C82
:103D7000D21A3B689A6105E03B689B69BB643B686B
:103D800000229A613B681B7B002B1AD13B68596962
:103D90003B68DA88BB6C9BB2786800F0C8FB7C6833
:103DA0007B68B3F850309BB21C443B681B78DB0047
:103DB000234403F20243FB60BB6C9AB2FB681A8097
:103DC0000BE17A683B681B789B0013441B889BB20D
:103DD00003F04003002B62D07C683B685B78002BCB
:103DE00044D17C687B68B3F850309BB21C443B687C
:103DF0001B78DB00234403F206433B61BB6C002BC2
:103E000010D13B691B8823F4F8439AB23B691A80AE
:103E10003B691B886FEA43436FEA53439AB23B699D
:103E20001A8037E0BB6C3D2B11D8BB6C5B087B6400
:103E3000BB6C03F00103002B02D07B6C01337B646D
:103E40007B6C9BB29B029AB23B691A8022E0BB6CEE
:103E50005B097B647B6C9BB29B029BB26FEA434322
:103E60006FEA53439AB23B691A8013E03B685B7870
:103E7000012B0FD17B68B3F850309BB21C443B68D8
:103E80001B78DB00234403F206437B61BB6C9AB2D0
:103E90007B691A803B685B89A7F84E3061E03B681C
:103EA0005B78002B44D17C687B68B3F850309BB2C0
:103EB0001C443B681B78DB00234403F20243BB61D4
:103EC000BB6C002B10D1BB691B8823F4F8439AB25A
:103ED000BB691A80BB691B886FEA43436FEA53438F
:103EE0009AB2BB691A8038E0BB6C3D2B11D8BB6C11
:103EF0005B083B64BB6C03F00103002B02D03B6CFE
:103F000001333B643B6C9BB29B029AB2BB691A8043
:103F100023E0BB6C5B093B643B6C9BB29B029BB296
:103F20006FEA43436FEA53439AB2BB691A8014E0C5
:103F30003B685B78012B10D17C687B68B3F850300C
:103F40009BB21C443B681B78DB00234403F2024312
:103F5000FB61BB6C9AB2FB691A803B681B89A7F8AE
:103F60004E303B685969BB6C9BB2B7F84E207868FD
:103F700000F0DDFA3B685B78002B15D17A683B686E
:103F80001B789B0013441B889BB223F4E04323F06F
:103F900070039CB27A683B681B789B001A44994B6B
:103FA00023439BB2138018E03B685B78012B14D14C
:103FB0007A683B681B789B0013441B889BB223F4F0
:103FC000E04323F070039CB27A683B681B789B0047
:103FD0001A448D4B23439BB213807A683B681B784D
:103FE0009B0013441B889BB223F4E04323F040035F
:103FF0009CB284F010039CB284F020039CB27A68D7
:104000003B681B789B001A44804B23439BB2138070
:104010003CE13B689A693B681B699A4209D93B6855
:104020001B69BB643B689A69BB6CD21A3B689A6196
:1040300005E03B689B69BB643B6800229A613B6872
:104040001B7B002B44D17C687B68B3F850309BB25B
:104050001C443B681B78DB00234403F206433B62AD
:10406000BB6C002B10D13B6A1B8823F4F8439AB237
:104070003B6A1A803B6A1B886FEA43436FEA5343EB
:104080009AB23B6A1A80E6E0BB6C3D2B11D8BB6C40
:104090005B08FB63BB6C03F00103002B02D0FB6BDE
:1040A0000133FB63FB6B9BB29B029AB23B6A1A80A3
:1040B000D1E0BB6C5B09FB63FB6B9BB29B029BB2C9
:1040C0006FEA43436FEA53439AB23B6A1A80C2E0F5
:1040D0003B685B78002B44D17C687B68B3F8503038
:1040E0009BB21C443B681B78DB00234403F2024371
:1040F000FB62BB6C002B10D1FB6A1B8823F4F843D6
:104100009AB2FB6A1A80FB6A1B886FEA43436FEA24
:1041100053439AB2FB6A1A8038E0BB6C3D2B11D82E
:10412000BB6C5B08BB63BB6C03F00103002B02D0CC
:10413000BB6B0133BB63BB6B9BB29B029AB2FB6A46
:104140001A8023E0BB6C5B09BB63BB6B9BB29B0219
:104150009BB26FEA43436FEA53439AB2FB6A1A80F9
:1041600014E03B685B78012B10D17C687B68B3F866
:1041700050309BB21C443B681B78DB00234403F2A5
:1041800002433B63BB6C9AB23B6B1A807C683B6812
:104190005B78002B4BD17C687B68B3F850309BB2C6
:1041A0001C443B681B78DB00234403F206437B621C
:1041B000BB6C002B10D17B6A1B8823F4F8439AB2A6
:1041C0007B6A1A807B6A1B886FEA43436FEA53431A
:1041D0009AB27B6A1A803EE0BB6C3D2B18D8BB6C50
:1041E0005B087B63BB6C03F00103002B02D07B6B8D
:1041F00001337B637B6B9BB29B029AB27B6A1A8012
:1042000029E000BFC080FFFF80C0FFFF8080FFFF6C
:10421000BB6C5B097B637B6B9BB29B029BB26FEABF
:1042200043436FEA53439AB27B6A1A8013E03B68B8
:104230005B78012B0FD17B68B3F850309BB21C44E4
:104240003B681B78DB00234403F20643BB62BB6C74
:104250009AB2BB6A1A807A683B681B789B00134449
:104260001B889BB223F4804323F070039CB284F438
:1042700080539CB284F400539CB27A683B681B78EC
:104280009B001A44044B23439BB21380002318461F
:104290005437BD4690BD00BF8080FFFF90B482B010
:1042A00000AF786039603B685B78002B18D07A6883
:1042B0003B681B789B0013441B889BB223F4E043AC
:1042C00023F040039CB284F010039CB27A683B68F0
:1042D0001B789B001A44114B23439BB2138017E0B9
:1042E0007A683B681B789B0013441B889BB223F4BD
:1042F000804323F070039CB284F480539CB27A68AC
:104300003B681B789B001A44044B23439BB21380E9
:10431000002318460837BD4690BC70478080FFFFD9
:1043200090B482B000AF786039603B681B7B002B93
:104330007DD13B685B78002B3DD07A683B681B7869
:104340009B0013441B889CB2234603F04003002BC0
:1043500014D07A683B681B789B0013441B889BB27F
:1043600023F4E04323F070039CB27A683B681B7827
:104370009B001A44314B23439BB213803B68DB788C
:10438000012B54D07A683B681B789B0013441B8830
:104390009BB223F4E04323F040039CB284F020035B
:1043A0009CB27A683B681B789B001A44244B2343D9
:1043B0009BB213803BE07A683B681B789B001344F8
:1043C0001B889CB2234603F48043002B14D07A68E8
:1043D0003B681B789B0013441B889BB223F4E0438B
:1043E00023F070039CB27A683B681B789B001A44E8
:1043F000144B23439BB213807A683B681B789B0065
:1044000013441B889BB223F4804323F070039CB2B7
:1044100084F480539CB284F400539CB27A683B6865
:104420001B789B001A44064B23439BB21380002346
:1044300018460837BD4690BC704700BFC080FFFFDC
:104440008080FFFF80C0FFFF80B483B000AF786042
:104450007B680122A3F840207B680022A3F8442057
:104460007B680322A3F84020002318460C37BD4682
:104470005DF8047B704780B483B000AF78600B4672
:10448000FB70FB78002B03D17B688022A3F84C20C3
:10449000002318460C37BD465DF8047B704780B496
:1044A00083B000AF78607B68B3F858309BB26FEA96
:1044B00043436FEA53439AB27B68A3F85820002322
:1044C00018460C37BD465DF8047B704780B483B056
:1044D00000AF78607B68B3F858309BB2C3F30E032B
:1044E0009AB27B68A3F85820002318460C37BD46C3
:1044F0005DF8047B704780B485B000AF78607B685E
:10450000B3F844309BB2FB60FB6818461437BD46D5
:104510005DF8047B704780B483B000AF7860396089
:10452000002318460C37BD465DF8047B704780B405
:104530008DB000AFF860B96011461A460B46FB809B
:104540001346BB80BB8801335B083B62FB68FB61A1
:10455000BB687B62FA88FB69134403F58063BB6226
:104560003B6AFB621BE07B6A1B78BB617B6A0133A1
:104570007B627B6A1B789BB21B029BB21A46BB69AB
:1045800013437B617B699AB2BB6A1A80BB6A0233B0
:10459000BB627B6A01337B62FB6A013BFB62FB6AA5
:1045A000002BE0D100BF3437BD465DF8047B704777
:1045B00080B48BB000AFF860B96011461A460B4664
:1045C000FB801346BB80BB885B089BB2BB61FB686A
:1045D0007B61BB68FB61FA887B69134403F58063E8
:1045E0003B62BB697B6217E03B6A1B883B613B6AAD
:1045F00002333B623B69DAB2FB691A70FB69013333
:10460000FB613B691B0ADAB2FB691A70FB69013373
:10461000FB617B6A013B7B627B6A002BE4D1BB8838
:1046200003F001039BB2002B06D03B6A1B883B6161
:104630003B69DAB2FB691A7000BF2C37BD465DF8E2
:10464000047B704780B584B000AF78600B46FB7088
:104650000023FB737B681B7C002B15D14FF4007388
:1046600002228121786806F0CDFE7B680122DA62A1
:104670004FF4007302220121786806F0C3FE7B68C4
:104680000122C3F8582112E04023022281217868D8
:1046900006F0B8FE7B680122DA6240230222012183
:1046A000786806F0AFFE7B680122C3F85821082322
:1046B00003228221786806F0A5FE7B6801221A6435
:1046C0004FF4077007F098F802467B68C3F8902211
:1046D0007B68D3F89032002B02D10123FB7326E0D4
:1046E0007B68D3F89032BB607B68D3F894321B6848
:1046F0009847BB680022C3F81422BB680022C3F8A5
:1047000018227B681B7C002B09D1BB68D3F80422DC
:104710004FF400730121786806F0EAFF07E0BB68F8
:10472000D3F8042240230121786806F0E1FFFB7BE7
:1047300018461037BD4680BD80B584B000AF7860A4
:104740000B46FB700023FB738121786806F098FE0E
:104750007B680022DA620121786806F091FE7B68AE
:104760000022C3F858218221786806F089FE7B6810
:1047700000221A647B68D3F89032002B0ED07B683D
:10478000D3F894325B6898477B68D3F89032184628
:1047900007F040F87B680022C3F89022FB7B1846A4
:1047A0001037BD4680BD80B586B000AF78603960F7
:1047B0007B68D3F890323B610023FB730023BB81FD
:1047C0000023FB753B681B7803F06003002B39D096
:1047D000202B7CD13B68DB88002B29D03B681B78E1
:1047E0005BB2002B11DA7B68D3F894329B683A688D
:1047F000507839693A68D288984739693B68DB88CC
:104800001A46786801F0C4F968E03B685A783B6959
:1048100083F800223B68DB88DAB23B6983F8012227
:1048200039693B68DB881A46786801F0DFF955E0A2
:104830007B68D3F894329B683A68507800223968D4
:1048400098474BE03B685B780A2B17D00B2B29D09D
:10485000002B33D17B6893F87432032B07D107F117
:104860000C0302221946786801F092F92EE03968AB
:10487000786801F022F90223FB7527E07B6893F842
:104880007432032B07D107F10F0301221946786810
:1048900001F07EF91AE03968786801F00EF9022318
:1048A000FB7513E07B6893F87432032B0DD03968E5
:1048B000786801F002F90223FB7506E03968786830
:1048C00001F0FBF80223FB7500E000BF06E0396849
:1048D000786801F0F2F80223FB7500BFFB7D1846F3
:1048E0001837BD4680BD80B584B000AF78600B46F8
:1048F000FB707B68D3F89032FB607B68D3F898320A
:10490000BB607B68D3F89032002B37D0FA78796897
:1049100013469B0013449B000B441C331B68002B65
:1049200026D0FA78796813469B0013449B000B4409
:104930001C331B68FA78B96852010A44383212688D
:10494000B3FBF2F102FB01F29B1A002B10D1FA78B3
:10495000796813469B0013449B000B441C330022D0
:104960001A60F97800230022786806F087FE03E0D9
:10497000FB680022C3F81422002300E0022318463B
:104980001037BD4680BD80B584B000AF78600B465F
:10499000FB707B68D3F89032FB60FB78194678682F
:1049A00006F0E0FE0246FB68C3F80C227B68D3F8F1
:1049B0009032002B0DD07B68D3F89432DB68FA6814
:1049C000D2F80402FA6802F50372114698470023F0
:1049D00000E0022318461037BD4680BD80B584B084
:1049E00000AF78607B68D3F89032FB607B68D3F8C7
:1049F0009432002B15D0FB6893F80032FF2B10D0B7
:104A00007B68D3F894329B68FA6892F80002F968E0
:104A1000FA6892F8012292B29847FB68FF2283F865
:104A20000022002318461037BD4680BD80B483B0F5
:104A300000AF78607B6843221A80034B18460C371E
:104A4000BD465DF8047B70479000002080B483B0C1
:104A500000AF78607B6843221A80034B18460C37FE
:104A6000BD465DF8047B70474C00002080B483B0E5
:104A700000AF78607B6843221A80034B18460C37DE
:104A8000BD465DF8047B7047D400002080B483B03D
:104A900000AF78607B680A221A80034B18460C37F7
:104AA000BD465DF8047B70470800002080B485B0E7
:104AB00000AF786039600223FB733B68002B05D0A0
:104AC0007B683A68C3F894220023FB73FB7B18468B
:104AD0001437BD465DF8047B704780B487B000AFE3
:104AE000F860B9601346FB80FB68D3F890327B61B5
:104AF0007B69BA68C3F80822FA887B69C3F8102278
:104B0000002318461C37BD465DF8047B704780B40F
:104B100085B000AF786039607B68D3F89032FB6075
:104B2000FB683A68C3F80422002318461437BD46D0
:104B30005DF8047B704780B584B000AF78607B6817
:104B4000D3F89032FB607B68D3F89032002B1CD0F6
:104B5000FB68D3F81432002B15D1FB680122C3F88F
:104B60001422FB68D3F810227B681A63FB68D3F821
:104B70000822FB68D3F810329BB28121786806F0D6
:104B80007DFD002302E0012300E0022318461037D8
:104B9000BD4680BD80B584B000AF78607B68D3F837
:104BA0009032FB607B68D3F89032002B17D07B6883
:104BB0001B7C002B09D1FB68D3F804224FF400734F
:104BC0000121786806F094FD07E0FB68D3F8042221
:104BD00040230121786806F08BFD002300E00223CA
:104BE00018461037BD4680BD80B584B000AFF86070
:104BF000B9601346FB71FB68002B01D102231AE058
:104C0000FB68D3F88C32002B03D0FB680022C3F87A
:104C10008C22BB68002B03D0FB68BA68C3F88822DB
:104C2000FB68012283F87422FB68FA791A70F8682D
:104C300006F0F0FA002318461037BD4680BD80B557
:104C400082B000AF78607B68012283F874227B68B1
:104C5000D3F88C325B687A685268D2B211467868B1
:104C60009847786806F09CFB786806F035FB0023CF
:104C700018460837BD4680BD80B485B000AF786067
:104C800039600023FB733B68002B06D07B683A68D1
:104C9000C3F88C220023FB7301E00223FB73FB7B30
:104CA00018461437BD465DF8047B704780B582B066
:104CB00000AF7860786806F041FB0023184608379B
:104CC000BD4680BD80B483B000AF78600023184635
:104CD0000C37BD465DF8047B704780B584B000AFEB
:104CE00078600B46FB700223FB737B68D3F88C3231
:104CF000002B0CD07B68D3F88C321B68FA781146F5
:104D0000786898470346002B01D10023FB73FB7B97
:104D100018461037BD4680BD80B582B000AF7860C0
:104D20000B46FB707B68D3F88C325B68FA781146CF
:104D300078689847002318460837BD4680BD80B57F
:104D400082B000AF786039607B6803F52073396802
:104D5000184600F075FE7B680122C3F86C227B6860
:104D6000B3F886321A467B68C3F870227B6893F8E2
:104D7000803203F01F03012B0CD0012B02D3022B36
:104D800010D017E07B6803F520731946786800F0AF
:104D9000C9F91AE07B6803F520731946786800F0BA
:104DA0002BFA12E07B6803F520731946786800F04F
:104DB00069FA0AE07B6893F8803223F07F03DBB264
:104DC0001946786806F092FB00BF002318460837A2
:104DD000BD4680BD80B586B000AFF8600B467A60F6
:104DE000FB72FB7A002B4BD1FB6803F5A0737B6150
:104DF000FB68D3F86C32032B34D17B69DA687B69AA
:104E00001B699A4219D97B69DA687B691B69D21AD6
:104E10007B69DA607B69DA687B691B699A4203D235
:104E20007B69DB689BB202E07B691B699BB21A4617
:104E30007968F86800F0F8FE38E0FB68D3F88C3247
:104E40001B69002B0AD0FB6893F87432032B05D141
:104E5000FB68D3F88C321B69F8689847F86800F053
:104E6000F5FE23E0FB68D3F86C32052B1ED1FB68FE
:104E70000022C3F86C220021F86806F037FB15E029
:104E8000FB68D3F88C329B69002B0DD0FB6893F83C
:104E90007432032B08D1FB68D3F88C329B69FA7A01
:104EA0001146F868984701E0022300E00023184605
:104EB0001837BD4680BD80B586B000AFF8600B46A0
:104EC0007A60FB72FB7A002B7FD1FB6814337B6125
:104ED000FB68D3F86C32022B5CD17B69DA687B69A2
:104EE0001B699A4215D97B69DA687B691B69D21AFA
:104EF0007B69DA607B69DB689BB21A467968F8687F
:104F000000F062FE002300220021F86806F0F0FBAA
:104F10004EE07B699B687A691269B3FBF2F102FB90
:104F200001F29B1A002B1CD17B699A687B691B6973
:104F30009A4216D37B699A68FB68D3F870329A421A
:104F40000FD200220021F86800F03EFEFB6800222C
:104F5000C3F87022002300220021F86806F0C8FB85
:104F600026E0FB68D3F88C32DB68002B0AD0FB68A4
:104F700093F87432032B05D1FB68D3F88C32DB68CD
:104F8000F86898478021F86806F0B0FAF86800F0F1
:104F900070FE0DE0FB68D3F86C32042B04D0FB6884
:104FA000D3F86C32002B03D18021F86806F09EFA0A
:104FB000FB6893F87832012B1DD1F868FFF782FE69
:104FC000FB68002283F8782215E0FB68D3F88C3266
:104FD0005B69002B0DD0FB6893F87432032B08D16A
:104FE000FB68D3F88C325B69FA7A1146F868984707
:104FF00001E0022300E0002318461837BD4680BDBB
:1050000080B582B000AF786040230022002178682C
:1050100006F0F8F97B680122C3F844217B6840223E
:10502000C3F85021402300228021786806F0EAF975
:105030007B6801229A617B6840225A627B68012268
:1050400083F874227B680022C3F86C227B680022FC
:105050005A607B680022C3F87C227B68D3F89032C8
:10506000002B09D07B68D3F88C325B687A68526871
:10507000D2B2114678689847002318460837BD46D3
:1050800080BD80B483B000AF78600B46FB707B6856
:10509000FA781A74002318460C37BD465DF8047B75
:1050A000704780B483B000AF78607B6893F8742257
:1050B0007B6883F875227B68042283F874220023BE
:1050C00018460C37BD465DF8047B704780B483B04A
:1050D00000AF78607B6893F875227B6883F8742250
:1050E000002318460C37BD465DF8047B704780B539
:1050F00082B000AF78607B6893F87432032B0BD1D9
:105100007B68D3F88C32DB69002B05D07B68D3F841
:105110008C32DB6978689847002318460837BD460B
:1051200080BD000080B584B000AF78603960002396
:10513000FB733B681B7803F06003202B04D0402BEB
:1051400002D0002B08D04CE07B68D3F88C329B68EF
:1051500039687868984749E03B685B78092B3AD80A
:1051600001A252F823F000BFB9510008CD51000848
:10517000D7510008C3510008D75100089B510008BF
:1051800091510008D7510008AF510008A5510008FF
:105190003968786800F0D2F922E03968786800F060
:1051A000E3FA1DE03968786800F020FB18E0396800
:1051B000786800F0A9FB13E03968786800F0D8FB44
:1051C0000EE03968786800F006FC09E03968786814
:1051D00000F015FC04E03968786800F06EFC00BF50
:1051E00004E03968786800F068FC00BFFB7B184673
:1051F0001037BD4680BD00BF80B584B000AF786079
:1052000039600023FB733B681B7803F06003202B9D
:1052100003D0402B01D0002B2AD17B6893F8743245
:10522000013B022B1DD83B689B88DBB2012B13D8B6
:105230007B68D3F88C329B68396878689847034656
:10524000FB733B68DB88002B10D1FB7B002B0DD15F
:10525000786800F0FBFC09E03968786800F02DFC04
:1052600004E03968786800F028FC00E000BF04E042
:105270003968786800F021FC00BF00231846103719
:10528000BD4680BD80B584B000AF78603960002332
:10529000FB733B689B88BB733B681B7803F0600320
:1052A000202B04D0402B02D0002B08D03BE17B68A0
:1052B000D3F88C329B6839687868984738E13B6846
:1052C0001B7803F06003202B0AD17B68D3F88C3263
:1052D0009B683968786898470346FB73FB7B28E135
:1052E0003B685B78012B3ED0032B02D0002B70D0A3
:1052F00013E17B6893F87432022B02D0032B15D094
:105300002BE0BB7B002B0CD0BB7B802B09D0BB7B65
:105310001946786806F0EAF88021786806F0E6F821
:1053200020E03968786800F0C8FB1BE03B685B88C8
:10533000002B0ED1BB7B002B0BD0BB7B802B08D06E
:105340003B68DB88002B04D1BB7B1946786806F0EC
:10535000CDF8786800F07AFC04E03968786800F0ED
:10536000ACFB00BFDEE07B6893F87432022B02D006
:10537000032B15D026E0BB7B002B0CD0BB7B802BF6
:1053800009D0BB7B1946786806F0B0F880217868B0
:1053900006F0ACF81CE03968786800F08EFB17E086
:1053A0003B685B88002B12D1BB7B03F07F03002B93
:1053B00004D0BB7B1946786806F0CEF8786800F018
:1053C00045FC04E03968786800F077FB00E000BF36
:1053D000A8E07B6893F87432022B02D0032B31D003
:1053E00095E0BB7B002B07D0BB7B802B04D03968BA
:1053F000786800F062FB8FE097F90E30002B0BDA33
:10540000BB7B03F07F0213469B0013449B001033C9
:105410007A68134404330AE0BB7B03F07F0213462F
:105420009B0013449B0003F5A0737A681344BB6090
:10543000BB6800221A60BB6802221946786800F037
:10544000A7FB69E097F90E30002B11DABB7B03F064
:105450000F02796813469B0013449B000B441833DA
:105460001B68002B17D13968786800F026FB53E0E1
:10547000BB7B03F00F02796813469B0013449B002B
:105480000B4403F5A2731B68002B04D139687868BC
:1054900000F013FB40E097F90E30002B0BDABB7BDA
:1054A00003F07F0213469B0013449B0010337A687D
:1054B000134404330AE0BB7B03F07F0213469B00D6
:1054C00013449B0003F5A0737A681344BB60BB7B55
:1054D000002B02D0BB7B802B03D1BB6800221A605B
:1054E0000EE0BB7B1946786806F06CF80346002B8B
:1054F00003D0BB6801221A6002E0BB6800221A6078
:10550000BB6802221946786800F042FB04E0396863
:10551000786800F0D2FA00BF04E03968786800F0DB
:10552000CCFA00BF04E03968786800F0C6FA00BF22
:10553000FB7B18461037BD4680BD000080B584B0A7
:1055400000AF786039603B685B881B0A9BB2013B07
:105550000E2B00F2E58001A252F823F0B1550008AD
:10556000C9550008095600082157000821570008AE
:10557000CD560008F35600082157000821570008AF
:10558000215700082157000821570008215700081B
:1055900021570008995500087B68D3F88832DB69E9
:1055A0007A68127C07F10A0110469847F860BCE05F
:1055B0007B68D3F888321B687A68127C07F10A018D
:1055C00010469847F860B0E07B681B7C002B0DD13B
:1055D0007B68D3F88C329B6A07F10A021046984721
:1055E000F860FB68013302221A709EE07B68D3F8F2
:1055F0008C32DB6A07F10A0210469847F860FB68B4
:10560000013302221A7090E03B685B88DBB2052B05
:1056100056D801A252F823F0315600084956000826
:10562000615600087956000891560008A9560008EE
:105630007B68D3F888325B687A68127C07F10A01CC
:1056400010469847F86040E07B68D3F888329B6842
:105650007A68127C07F10A0110469847F86034E036
:105660007B68D3F88832DB687A68127C07F10A011C
:1056700010469847F86028E07B68D3F888321B69A9
:105680007A68127C07F10A0110469847F8601CE01E
:105690007B68D3F888325B697A68127C07F10A016B
:1056A00010469847F86010E07B68D3F888329B6911
:1056B0007A68127C07F10A0110469847F86004E006
:1056C0003968786800F0F9F94BE02EE07B681B7CC4
:1056D000002B09D17B68D3F88C325B6B07F10A028F
:1056E00010469847F86020E03968786800F0E5F9DE
:1056F00037E07B681B7C002B0DD17B68D3F88C32A4
:105700001B6B07F10A0210469847F860FB680133EB
:1057100007221A7009E03968786800F0CEF920E0B5
:105720003968786800F0C9F91BE07B89002B11D03B
:105730003B68DB88002B0DD03B68DA887B8993427D
:1057400028BF13469BB27B817B891A46F96878682B
:1057500000F01EFA3B68DB88002B02D1786800F06D
:1057600075FA1037BD4680BD80B584B000AF786053
:1057700039603B689B88002B30D13B68DB88002B6D
:105780002CD13B685B887F2B28D83B685B88DBB2D9
:1057900003F07F03FB737B6893F87432032B04D10F
:1057A0003968786800F089F91CE07B68FA7B83F837
:1057B0007622FB7B1946786805F02AFF786800F0AE
:1057C00045FAFB7B002B04D07B68022283F874220D
:1057D00008E07B68012283F8742203E03968786866
:1057E00000F06BF900BF1037BD4680BD80B582B0B8
:1057F00000AF786039603B685B88DAB2414B1A7061
:10580000404B1B78012B04D93968786800F055F9B2
:1058100075E07B6893F87432022B02D0032B23D0FF
:1058200062E0384B1B78002B1AD0364B1B781A4697
:105830007B685A607B68032283F87422314B1B78A3
:1058400019467868FFF749FA0346022B04D13968F4
:10585000786800F032F952E0786800F0F7F94EE02D
:10586000786800F0F3F94AE0264B1B78002B12D140
:105870007B68022283F87422224B1B781A467B68CD
:105880005A60204B1B7819467868FFF745FA78680C
:1058900000F0DCF933E01B4B1B781A467B685B6831
:1058A0009A421DD07B685B68DBB219467868FFF7C7
:1058B00033FA144B1B781A467B685A60114B1B78DD
:1058C00019467868FFF709FA0346022B04D13968B4
:1058D000786800F0F2F812E0786800F0B7F90EE0AE
:1058E000786800F0B3F90AE03968786800F0E5F804
:1058F000044B1B7819467868FFF70EFA00BF08378B
:10590000BD4680BD1402002080B582B000AF786033
:1059100039603B68DB88012B04D03968786800F077
:10592000CCF821E07B6893F87432012B17DB022B53
:1059300002DD032B0BD012E07B6800229A607B68AB
:10594000083301221946786800F022F90CE07B68E0
:10595000043301221946786800F01AF904E0396826
:10596000786800F0AAF800BF00BF0837BD4680BDC8
:1059700080B582B000AF786039607B6893F874328C
:10598000013B022B1ED83B68DB88022B04D0396810
:10599000786800F092F81AE07B680122DA607B6890
:1059A000D3F87C32002B05D07B68DB6843F0020221
:1059B0007B68DA607B680C3302221946786800F055
:1059C000E7F804E03968786800F077F800BF00BFB6
:1059D0000837BD4680BD80B582B000AF78603960C1
:1059E0003B685B88012B06D17B680122C3F87C22CF
:1059F000786800F02BF900BF0837BD4680BD80B540
:105A000082B000AF786039607B6893F87432013BF4
:105A1000022B0BD83B685B88012B0CD17B680022E2
:105A2000C3F87C22786800F011F904E039687868DE
:105A300000F043F800E000BF00BF0837BD4680BD5E
:105A400080B483B000AF786039603B681A787B68B7
:105A50001A703B685A787B685A703B6802331B782F
:105A60009AB23B6803331B789BB21B029BB2134470
:105A70009AB27B685A803B6804331B789AB23B68C1
:105A800005331B789BB21B029BB213449AB27B680E
:105A90009A803B6806331B789AB23B6807331B78C1
:105AA0009BB21B029BB213449AB27B68DA8000BFA0
:105AB0000C37BD465DF8047B704780B582B000AFFF
:105AC000786039608021786805F010FD00217868E1
:105AD00005F00CFD00BF0837BD4680BD80B586B01F
